{
  "contractName": "MarketPlace",
  "abi": [
    {
      "inputs": [
        {
          "internalType": "contract IERC1155",
          "name": "token",
          "type": "address"
        }
      ],
      "stateMutability": "nonpayable",
      "type": "constructor"
    },
    {
      "stateMutability": "payable",
      "type": "fallback",
      "payable": true
    },
    {
      "stateMutability": "payable",
      "type": "receive",
      "payable": true
    },
    {
      "inputs": [
        {
          "internalType": "uint256",
          "name": "tokenID",
          "type": "uint256"
        }
      ],
      "name": "buyToken",
      "outputs": [],
      "stateMutability": "payable",
      "type": "function",
      "payable": true
    },
    {
      "inputs": [
        {
          "internalType": "address",
          "name": "operator",
          "type": "address"
        },
        {
          "internalType": "address",
          "name": "from",
          "type": "address"
        },
        {
          "internalType": "uint256",
          "name": "id",
          "type": "uint256"
        },
        {
          "internalType": "uint256",
          "name": "value",
          "type": "uint256"
        },
        {
          "internalType": "bytes",
          "name": "data",
          "type": "bytes"
        }
      ],
      "name": "onERC1155Received",
      "outputs": [
        {
          "internalType": "bytes4",
          "name": "",
          "type": "bytes4"
        }
      ],
      "stateMutability": "pure",
      "type": "function",
      "constant": true
    }
  ],
  "bytecode": "0x608060405234801561001057600080fd5b506040516108733803806108738339818101604052810190610032919061015b565b600073ffffffffffffffffffffffffffffffffffffffff168173ffffffffffffffffffffffffffffffffffffffff1614156100a2576040517f08c379a0000000000000000000000000000000000000000000000000000000008152600401610099906101ea565b60405180910390fd5b806000806101000a81548173ffffffffffffffffffffffffffffffffffffffff021916908373ffffffffffffffffffffffffffffffffffffffff160217905550655af3107a400060016000600181526020019081526020016000208190555065b5e620f48000600160006002815260200190815260200160002081905550660110d9316ec00060016000600381526020019081526020016000208190555050610276565b6000815190506101558161025f565b92915050565b60006020828403121561016d57600080fd5b600061017b84828501610146565b91505092915050565b600061019160278361020a565b91507f4d61726b6574506c6163653a20546f6b656e20616464726573732063616e206e60008301527f6f74207a65726f000000000000000000000000000000000000000000000000006020830152604082019050919050565b6000602082019050818103600083015261020381610184565b9050919050565b600082825260208201905092915050565b60006102268261023f565b9050919050565b60006102388261021b565b9050919050565b600073ffffffffffffffffffffffffffffffffffffffff82169050919050565b6102688161022d565b811461027357600080fd5b50565b6105ee806102856000396000f3fe60806040526004361061002d5760003560e01c80632d296bf114610040578063f23a6e611461005c57610034565b3661003457005b61003e6001610099565b005b61005a60048036038101906100559190610316565b610099565b005b34801561006857600080fd5b50610083600480360381019061007e9190610284565b6101e1565b6040516100909190610493565b60405180910390f35b6000600160008381526020019081526020016000205414156100f0576040517f08c379a00000000000000000000000000000000000000000000000000000000081526004016100e7906104ce565b60405180910390fd5b6000349050600160008381526020019081526020016000205481101561014b576040517f08c379a0000000000000000000000000000000000000000000000000000000008152600401610142906104ae565b60405180910390fd5b60008054906101000a900473ffffffffffffffffffffffffffffffffffffffff1673ffffffffffffffffffffffffffffffffffffffff1663f242432a30338560016040518563ffffffff1660e01b81526004016101ab949392919061043b565b600060405180830381600087803b1580156101c557600080fd5b505af11580156101d9573d6000803e3d6000fd5b505050505050565b60007ff23a6e612e1ff4830e658fe43f4e3cb4a5f8170bd5d9e69fb5d7a7fa9e4fdf9790509695505050505050565b60008135905061021f8161058a565b92915050565b60008083601f84011261023757600080fd5b8235905067ffffffffffffffff81111561025057600080fd5b60208301915083600182028301111561026857600080fd5b9250929050565b60008135905061027e816105a1565b92915050565b60008060008060008060a0878903121561029d57600080fd5b60006102ab89828a01610210565b96505060206102bc89828a01610210565b95505060406102cd89828a0161026f565b94505060606102de89828a0161026f565b935050608087013567ffffffffffffffff8111156102fb57600080fd5b61030789828a01610225565b92509250509295509295509295565b60006020828403121561032857600080fd5b60006103368482850161026f565b91505092915050565b61034881610510565b82525050565b61035781610522565b82525050565b61036681610578565b82525050565b6000610379601f836104ff565b91507f4d61726b6574506c6163653a20496e73756666696369656e742066756e6473006000830152602082019050919050565b60006103b96023836104ff565b91507f4d61726b6574506c6163653a20546f6b656e494420646f6573206e6f7420657860008301527f69737400000000000000000000000000000000000000000000000000000000006020830152604082019050919050565b600061041f6000836104ee565b9150600082019050919050565b6104358161056e565b82525050565b600060a082019050610450600083018761033f565b61045d602083018661033f565b61046a604083018561042c565b610477606083018461035d565b818103608083015261048881610412565b905095945050505050565b60006020820190506104a8600083018461034e565b92915050565b600060208201905081810360008301526104c78161036c565b9050919050565b600060208201905081810360008301526104e7816103ac565b9050919050565b600082825260208201905092915050565b600082825260208201905092915050565b600061051b8261054e565b9050919050565b60007fffffffff0000000000000000000000000000000000000000000000000000000082169050919050565b600073ffffffffffffffffffffffffffffffffffffffff82169050919050565b6000819050919050565b60006105838261056e565b9050919050565b61059381610510565b811461059e57600080fd5b50565b6105aa8161056e565b81146105b557600080fd5b5056fea2646970667358221220acd71621b3ac1d134e6b542f32ce455578030be423759ae4283642513d57fb3564736f6c63430008000033",
  "immutableReferences": {},
  "source": "// SPDX-License-Identifier: MIT\r\npragma solidity >=0.4.22 <0.9.0;\r\nimport '@openzeppelin/contracts/token/ERC1155/IERC1155.sol';\r\n\r\ncontract MarketPlace{\r\n    IERC1155 private _token;\r\n    mapping (uint => uint) price; //token type => price\r\n\r\n    constructor(IERC1155 token){\r\n     require(address(token) != address(0),'MarketPlace: Token address can not zero');\r\n     _token = token;\r\n\r\n     price[1] = 100000000000000;\r\n     price[2] = 200000000000000;\r\n     price[3] = 300000000000000;\r\n\r\n    }\r\n    receive() payable external{}\r\n\r\n    fallback() payable external{\r\n      buyToken(1);\r\n    }\r\n\r\n    function buyToken(uint tokenID) public payable{\r\n        require(price[tokenID] != 0,'MarketPlace: TokenID does not exist');\r\n        uint weiAmount = msg.value;\r\n        require(weiAmount >= price[tokenID],'MarketPlace: Insufficient funds');\r\n        _token.safeTransferFrom(address(this), msg.sender, tokenID, 1, \"\");\r\n    }\r\n\r\n    function onERC1155Received(address operator, address from, uint256 id, uint256 value, bytes calldata data) pure external returns (bytes4){\r\n        return bytes4(keccak256(\"onERC1155Received(address,address,uint256,uint256,bytes)\"));\r\n    }\r\n}",
  "sourcePath": "D:/BlockChain/Ethereum-201/Ethereum Game/contracts/marketPlace.sol",
  "compiler": {
    "name": "solc",
    "version": "0.8.0+commit.c7dfd78e.Emscripten.clang"
  },
  "schemaVersion": "3.4.1",
  "updatedAt": "2021-10-10T05:51:05.416Z",
  "networkType": "ethereum",
  "devdoc": {
    "kind": "dev",
    "methods": {},
    "version": 1
  },
  "userdoc": {
    "kind": "user",
    "methods": {},
    "version": 1
  }
}