{
  "contractName": "Token",
  "abi": [
    {
      "inputs": [],
      "stateMutability": "nonpayable",
      "type": "constructor"
    },
    {
      "anonymous": false,
      "inputs": [
        {
          "indexed": true,
          "internalType": "address",
          "name": "account",
          "type": "address"
        },
        {
          "indexed": true,
          "internalType": "address",
          "name": "operator",
          "type": "address"
        },
        {
          "indexed": false,
          "internalType": "bool",
          "name": "approved",
          "type": "bool"
        }
      ],
      "name": "ApprovalForAll",
      "type": "event"
    },
    {
      "anonymous": false,
      "inputs": [
        {
          "indexed": true,
          "internalType": "address",
          "name": "operator",
          "type": "address"
        },
        {
          "indexed": true,
          "internalType": "address",
          "name": "from",
          "type": "address"
        },
        {
          "indexed": true,
          "internalType": "address",
          "name": "to",
          "type": "address"
        },
        {
          "indexed": false,
          "internalType": "uint256[]",
          "name": "ids",
          "type": "uint256[]"
        },
        {
          "indexed": false,
          "internalType": "uint256[]",
          "name": "values",
          "type": "uint256[]"
        }
      ],
      "name": "TransferBatch",
      "type": "event"
    },
    {
      "anonymous": false,
      "inputs": [
        {
          "indexed": true,
          "internalType": "address",
          "name": "operator",
          "type": "address"
        },
        {
          "indexed": true,
          "internalType": "address",
          "name": "from",
          "type": "address"
        },
        {
          "indexed": true,
          "internalType": "address",
          "name": "to",
          "type": "address"
        },
        {
          "indexed": false,
          "internalType": "uint256",
          "name": "id",
          "type": "uint256"
        },
        {
          "indexed": false,
          "internalType": "uint256",
          "name": "value",
          "type": "uint256"
        }
      ],
      "name": "TransferSingle",
      "type": "event"
    },
    {
      "anonymous": false,
      "inputs": [
        {
          "indexed": false,
          "internalType": "string",
          "name": "value",
          "type": "string"
        },
        {
          "indexed": true,
          "internalType": "uint256",
          "name": "id",
          "type": "uint256"
        }
      ],
      "name": "URI",
      "type": "event"
    },
    {
      "inputs": [
        {
          "internalType": "address",
          "name": "account",
          "type": "address"
        },
        {
          "internalType": "uint256",
          "name": "id",
          "type": "uint256"
        }
      ],
      "name": "balanceOf",
      "outputs": [
        {
          "internalType": "uint256",
          "name": "",
          "type": "uint256"
        }
      ],
      "stateMutability": "view",
      "type": "function",
      "constant": true
    },
    {
      "inputs": [
        {
          "internalType": "address[]",
          "name": "accounts",
          "type": "address[]"
        },
        {
          "internalType": "uint256[]",
          "name": "ids",
          "type": "uint256[]"
        }
      ],
      "name": "balanceOfBatch",
      "outputs": [
        {
          "internalType": "uint256[]",
          "name": "",
          "type": "uint256[]"
        }
      ],
      "stateMutability": "view",
      "type": "function",
      "constant": true
    },
    {
      "inputs": [
        {
          "internalType": "uint256",
          "name": "id",
          "type": "uint256"
        }
      ],
      "name": "exists",
      "outputs": [
        {
          "internalType": "bool",
          "name": "",
          "type": "bool"
        }
      ],
      "stateMutability": "view",
      "type": "function",
      "constant": true
    },
    {
      "inputs": [
        {
          "internalType": "address",
          "name": "account",
          "type": "address"
        },
        {
          "internalType": "address",
          "name": "operator",
          "type": "address"
        }
      ],
      "name": "isApprovedForAll",
      "outputs": [
        {
          "internalType": "bool",
          "name": "",
          "type": "bool"
        }
      ],
      "stateMutability": "view",
      "type": "function",
      "constant": true
    },
    {
      "inputs": [
        {
          "internalType": "address",
          "name": "from",
          "type": "address"
        },
        {
          "internalType": "address",
          "name": "to",
          "type": "address"
        },
        {
          "internalType": "uint256[]",
          "name": "ids",
          "type": "uint256[]"
        },
        {
          "internalType": "uint256[]",
          "name": "amounts",
          "type": "uint256[]"
        },
        {
          "internalType": "bytes",
          "name": "data",
          "type": "bytes"
        }
      ],
      "name": "safeBatchTransferFrom",
      "outputs": [],
      "stateMutability": "nonpayable",
      "type": "function"
    },
    {
      "inputs": [
        {
          "internalType": "address",
          "name": "from",
          "type": "address"
        },
        {
          "internalType": "address",
          "name": "to",
          "type": "address"
        },
        {
          "internalType": "uint256",
          "name": "id",
          "type": "uint256"
        },
        {
          "internalType": "uint256",
          "name": "amount",
          "type": "uint256"
        },
        {
          "internalType": "bytes",
          "name": "data",
          "type": "bytes"
        }
      ],
      "name": "safeTransferFrom",
      "outputs": [],
      "stateMutability": "nonpayable",
      "type": "function"
    },
    {
      "inputs": [
        {
          "internalType": "address",
          "name": "operator",
          "type": "address"
        },
        {
          "internalType": "bool",
          "name": "approved",
          "type": "bool"
        }
      ],
      "name": "setApprovalForAll",
      "outputs": [],
      "stateMutability": "nonpayable",
      "type": "function"
    },
    {
      "inputs": [
        {
          "internalType": "bytes4",
          "name": "interfaceId",
          "type": "bytes4"
        }
      ],
      "name": "supportsInterface",
      "outputs": [
        {
          "internalType": "bool",
          "name": "",
          "type": "bool"
        }
      ],
      "stateMutability": "view",
      "type": "function",
      "constant": true
    },
    {
      "inputs": [
        {
          "internalType": "uint256",
          "name": "id",
          "type": "uint256"
        }
      ],
      "name": "totalSupply",
      "outputs": [
        {
          "internalType": "uint256",
          "name": "",
          "type": "uint256"
        }
      ],
      "stateMutability": "view",
      "type": "function",
      "constant": true
    },
    {
      "inputs": [
        {
          "internalType": "uint256",
          "name": "",
          "type": "uint256"
        }
      ],
      "name": "uri",
      "outputs": [
        {
          "internalType": "string",
          "name": "",
          "type": "string"
        }
      ],
      "stateMutability": "view",
      "type": "function",
      "constant": true
    },
    {
      "inputs": [
        {
          "internalType": "address",
          "name": "to",
          "type": "address"
        },
        {
          "internalType": "uint256",
          "name": "id",
          "type": "uint256"
        },
        {
          "internalType": "uint256",
          "name": "amount",
          "type": "uint256"
        }
      ],
      "name": "mint",
      "outputs": [],
      "stateMutability": "nonpayable",
      "type": "function"
    }
  ],
  "bytecode": "0x60806040523480156200001157600080fd5b506040518060200160405280600081525062000033816200003a60201b60201c565b506200016b565b80600290805190602001906200005292919062000056565b5050565b828054620000649062000106565b90600052602060002090601f016020900481019282620000885760008555620000d4565b82601f10620000a357805160ff1916838001178555620000d4565b82800160010185558215620000d4579182015b82811115620000d3578251825591602001919060010190620000b6565b5b509050620000e39190620000e7565b5090565b5b8082111562000102576000816000905550600101620000e8565b5090565b600060028204905060018216806200011f57607f821691505b602082108114156200013657620001356200013c565b5b50919050565b7f4e487b7100000000000000000000000000000000000000000000000000000000600052602260045260246000fd5b612907806200017b6000396000f3fe608060405234801561001057600080fd5b50600436106100a85760003560e01c80634e1273f4116100715780634e1273f4146101755780634f558e79146101a5578063a22cb465146101d5578063bd85b039146101f1578063e985e9c514610221578063f242432a14610251576100a8565b8062fdd58e146100ad57806301ffc9a7146100dd5780630e89341c1461010d578063156e29f61461013d5780632eb2c2d614610159575b600080fd5b6100c760048036038101906100c29190611a6f565b61026d565b6040516100d4919061241f565b60405180910390f35b6100f760048036038101906100f29190611b66565b610336565b6040516101049190612282565b60405180910390f35b61012760048036038101906101229190611bb8565b610418565b604051610134919061229d565b60405180910390f35b61015760048036038101906101529190611aab565b6104ac565b005b610173600480360381019061016e91906118e5565b6104cc565b005b61018f600480360381019061018a9190611afa565b61056d565b60405161019c9190612229565b60405180910390f35b6101bf60048036038101906101ba9190611bb8565b61071e565b6040516101cc9190612282565b60405180910390f35b6101ef60048036038101906101ea9190611a33565b610732565b005b61020b60048036038101906102069190611bb8565b6108b3565b604051610218919061241f565b60405180910390f35b61023b600480360381019061023691906118a9565b6108d0565b6040516102489190612282565b60405180910390f35b61026b600480360381019061026691906119a4565b610964565b005b60008073ffffffffffffffffffffffffffffffffffffffff168373ffffffffffffffffffffffffffffffffffffffff1614156102de576040517f08c379a00000000000000000000000000000000000000000000000000000000081526004016102d5906122ff565b60405180910390fd5b60008083815260200190815260200160002060008473ffffffffffffffffffffffffffffffffffffffff1673ffffffffffffffffffffffffffffffffffffffff16815260200190815260200160002054905092915050565b60007fd9b67a26000000000000000000000000000000000000000000000000000000007bffffffffffffffffffffffffffffffffffffffffffffffffffffffff1916827bffffffffffffffffffffffffffffffffffffffffffffffffffffffff1916148061040157507f0e89341c000000000000000000000000000000000000000000000000000000007bffffffffffffffffffffffffffffffffffffffffffffffffffffffff1916827bffffffffffffffffffffffffffffffffffffffffffffffffffffffff1916145b80610411575061041082610a05565b5b9050919050565b60606002805461042790612699565b80601f016020809104026020016040519081016040528092919081815260200182805461045390612699565b80156104a05780601f10610475576101008083540402835291602001916104a0565b820191906000526020600020905b81548152906001019060200180831161048357829003601f168201915b50505050509050919050565b6104c783838360405180602001604052806000815250610a6f565b505050565b6104d4610aab565b73ffffffffffffffffffffffffffffffffffffffff168573ffffffffffffffffffffffffffffffffffffffff16148061051a575061051985610514610aab565b6108d0565b5b610559576040517f08c379a00000000000000000000000000000000000000000000000000000000081526004016105509061235f565b60405180910390fd5b6105668585858585610ab3565b5050505050565b606081518351146105b3576040517f08c379a00000000000000000000000000000000000000000000000000000000081526004016105aa906123bf565b60405180910390fd5b6000835167ffffffffffffffff8111156105f6577f4e487b7100000000000000000000000000000000000000000000000000000000600052604160045260246000fd5b6040519080825280602002602001820160405280156106245781602001602082028036833780820191505090505b50905060005b8451811015610713576106bd85828151811061066f577f4e487b7100000000000000000000000000000000000000000000000000000000600052603260045260246000fd5b60200260200101518583815181106106b0577f4e487b7100000000000000000000000000000000000000000000000000000000600052603260045260246000fd5b602002602001015161026d565b8282815181106106f6577f4e487b7100000000000000000000000000000000000000000000000000000000600052603260045260246000fd5b6020026020010181815250508061070c906126cb565b905061062a565b508091505092915050565b60008061072a836108b3565b119050919050565b8173ffffffffffffffffffffffffffffffffffffffff16610751610aab565b73ffffffffffffffffffffffffffffffffffffffff1614156107a8576040517f08c379a000000000000000000000000000000000000000000000000000000000815260040161079f9061239f565b60405180910390fd5b80600160006107b5610aab565b73ffffffffffffffffffffffffffffffffffffffff1673ffffffffffffffffffffffffffffffffffffffff16815260200190815260200160002060008473ffffffffffffffffffffffffffffffffffffffff1673ffffffffffffffffffffffffffffffffffffffff16815260200190815260200160002060006101000a81548160ff0219169083151502179055508173ffffffffffffffffffffffffffffffffffffffff16610862610aab565b73ffffffffffffffffffffffffffffffffffffffff167f17307eab39ab6107e8899845ad3d59bd9653f200f220920489ca2b5937696c31836040516108a79190612282565b60405180910390a35050565b600060036000838152602001908152602001600020549050919050565b6000600160008473ffffffffffffffffffffffffffffffffffffffff1673ffffffffffffffffffffffffffffffffffffffff16815260200190815260200160002060008373ffffffffffffffffffffffffffffffffffffffff1673ffffffffffffffffffffffffffffffffffffffff16815260200190815260200160002060009054906101000a900460ff16905092915050565b61096c610aab565b73ffffffffffffffffffffffffffffffffffffffff168573ffffffffffffffffffffffffffffffffffffffff1614806109b257506109b1856109ac610aab565b6108d0565b5b6109f1576040517f08c379a00000000000000000000000000000000000000000000000000000000081526004016109e89061231f565b60405180910390fd5b6109fe8585858585610e13565b5050505050565b60007f01ffc9a7000000000000000000000000000000000000000000000000000000007bffffffffffffffffffffffffffffffffffffffffffffffffffffffff1916827bffffffffffffffffffffffffffffffffffffffffffffffffffffffff1916149050919050565b610a7b84848484611095565b81600360008581526020019081526020016000206000828254610a9e919061258d565b9250508190555050505050565b600033905090565b8151835114610af7576040517f08c379a0000000000000000000000000000000000000000000000000000000008152600401610aee906123df565b60405180910390fd5b600073ffffffffffffffffffffffffffffffffffffffff168473ffffffffffffffffffffffffffffffffffffffff161415610b67576040517f08c379a0000000000000000000000000000000000000000000000000000000008152600401610b5e9061233f565b60405180910390fd5b6000610b71610aab565b9050610b8181878787878761122b565b60005b8451811015610d7e576000858281518110610bc8577f4e487b7100000000000000000000000000000000000000000000000000000000600052603260045260246000fd5b602002602001015190506000858381518110610c0d577f4e487b7100000000000000000000000000000000000000000000000000000000600052603260045260246000fd5b60200260200101519050600080600084815260200190815260200160002060008b73ffffffffffffffffffffffffffffffffffffffff1673ffffffffffffffffffffffffffffffffffffffff16815260200190815260200160002054905081811015610cae576040517f08c379a0000000000000000000000000000000000000000000000000000000008152600401610ca59061237f565b60405180910390fd5b81810360008085815260200190815260200160002060008c73ffffffffffffffffffffffffffffffffffffffff1673ffffffffffffffffffffffffffffffffffffffff168152602001908152602001600020819055508160008085815260200190815260200160002060008b73ffffffffffffffffffffffffffffffffffffffff1673ffffffffffffffffffffffffffffffffffffffff1681526020019081526020016000206000828254610d63919061258d565b9250508190555050505080610d77906126cb565b9050610b84565b508473ffffffffffffffffffffffffffffffffffffffff168673ffffffffffffffffffffffffffffffffffffffff168273ffffffffffffffffffffffffffffffffffffffff167f4a39dc06d4c0dbc64b70af90fd698a233a518aa5d07e595d983b8c0526c8f7fb8787604051610df592919061224b565b60405180910390a4610e0b818787878787611233565b505050505050565b600073ffffffffffffffffffffffffffffffffffffffff168473ffffffffffffffffffffffffffffffffffffffff161415610e83576040517f08c379a0000000000000000000000000000000000000000000000000000000008152600401610e7a9061233f565b60405180910390fd5b6000610e8d610aab565b9050610ead818787610e9e88611403565b610ea788611403565b8761122b565b600080600086815260200190815260200160002060008873ffffffffffffffffffffffffffffffffffffffff1673ffffffffffffffffffffffffffffffffffffffff16815260200190815260200160002054905083811015610f44576040517f08c379a0000000000000000000000000000000000000000000000000000000008152600401610f3b9061237f565b60405180910390fd5b83810360008087815260200190815260200160002060008973ffffffffffffffffffffffffffffffffffffffff1673ffffffffffffffffffffffffffffffffffffffff168152602001908152602001600020819055508360008087815260200190815260200160002060008873ffffffffffffffffffffffffffffffffffffffff1673ffffffffffffffffffffffffffffffffffffffff1681526020019081526020016000206000828254610ff9919061258d565b925050819055508573ffffffffffffffffffffffffffffffffffffffff168773ffffffffffffffffffffffffffffffffffffffff168373ffffffffffffffffffffffffffffffffffffffff167fc3d58168c5ae7397731d063d5bbf3d657854427343f4c083240f7aacaa2d0f62888860405161107692919061243a565b60405180910390a461108c8288888888886114c9565b50505050505050565b600073ffffffffffffffffffffffffffffffffffffffff168473ffffffffffffffffffffffffffffffffffffffff161415611105576040517f08c379a00000000000000000000000000000000000000000000000000000000081526004016110fc906123ff565b60405180910390fd5b600061110f610aab565b90506111308160008761112188611403565b61112a88611403565b8761122b565b8260008086815260200190815260200160002060008773ffffffffffffffffffffffffffffffffffffffff1673ffffffffffffffffffffffffffffffffffffffff168152602001908152602001600020600082825461118f919061258d565b925050819055508473ffffffffffffffffffffffffffffffffffffffff16600073ffffffffffffffffffffffffffffffffffffffff168273ffffffffffffffffffffffffffffffffffffffff167fc3d58168c5ae7397731d063d5bbf3d657854427343f4c083240f7aacaa2d0f62878760405161120d92919061243a565b60405180910390a4611224816000878787876114c9565b5050505050565b505050505050565b6112528473ffffffffffffffffffffffffffffffffffffffff16611699565b156113fb578373ffffffffffffffffffffffffffffffffffffffff1663bc197c8187878686866040518663ffffffff1660e01b8152600401611298959493929190612167565b602060405180830381600087803b1580156112b257600080fd5b505af19250505080156112e357506040513d601f19601f820116820180604052508101906112e09190611b8f565b60015b611372576112ef6127bf565b806112fa5750611337565b806040517f08c379a000000000000000000000000000000000000000000000000000000000815260040161132e919061229d565b60405180910390fd5b6040517f08c379a0000000000000000000000000000000000000000000000000000000008152600401611369906122bf565b60405180910390fd5b63bc197c8160e01b7bffffffffffffffffffffffffffffffffffffffffffffffffffffffff1916817bffffffffffffffffffffffffffffffffffffffffffffffffffffffff1916146113f9576040517f08c379a00000000000000000000000000000000000000000000000000000000081526004016113f0906122df565b60405180910390fd5b505b505050505050565b60606000600167ffffffffffffffff811115611448577f4e487b7100000000000000000000000000000000000000000000000000000000600052604160045260246000fd5b6040519080825280602002602001820160405280156114765781602001602082028036833780820191505090505b50905082816000815181106114b4577f4e487b7100000000000000000000000000000000000000000000000000000000600052603260045260246000fd5b60200260200101818152505080915050919050565b6114e88473ffffffffffffffffffffffffffffffffffffffff16611699565b15611691578373ffffffffffffffffffffffffffffffffffffffff1663f23a6e6187878686866040518663ffffffff1660e01b815260040161152e9594939291906121cf565b602060405180830381600087803b15801561154857600080fd5b505af192505050801561157957506040513d601f19601f820116820180604052508101906115769190611b8f565b60015b611608576115856127bf565b8061159057506115cd565b806040517f08c379a00000000000000000000000000000000000000000000000000000000081526004016115c4919061229d565b60405180910390fd5b6040517f08c379a00000000000000000000000000000000000000000000000000000000081526004016115ff906122bf565b60405180910390fd5b63f23a6e6160e01b7bffffffffffffffffffffffffffffffffffffffffffffffffffffffff1916817bffffffffffffffffffffffffffffffffffffffffffffffffffffffff19161461168f576040517f08c379a0000000000000000000000000000000000000000000000000000000008152600401611686906122df565b60405180910390fd5b505b505050505050565b600080823b905060008111915050919050565b60006116bf6116ba84612494565b612463565b905080838252602082019050828560208602820111156116de57600080fd5b60005b8581101561170e57816116f488826117c2565b8452602084019350602083019250506001810190506116e1565b5050509392505050565b600061172b611726846124c0565b612463565b9050808382526020820190508285602086028201111561174a57600080fd5b60005b8581101561177a57816117608882611894565b84526020840193506020830192505060018101905061174d565b5050509392505050565b6000611797611792846124ec565b612463565b9050828152602081018484840111156117af57600080fd5b6117ba848285612657565b509392505050565b6000813590506117d181612875565b92915050565b600082601f8301126117e857600080fd5b81356117f88482602086016116ac565b91505092915050565b600082601f83011261181257600080fd5b8135611822848260208601611718565b91505092915050565b60008135905061183a8161288c565b92915050565b60008135905061184f816128a3565b92915050565b600081519050611864816128a3565b92915050565b600082601f83011261187b57600080fd5b813561188b848260208601611784565b91505092915050565b6000813590506118a3816128ba565b92915050565b600080604083850312156118bc57600080fd5b60006118ca858286016117c2565b92505060206118db858286016117c2565b9150509250929050565b600080600080600060a086880312156118fd57600080fd5b600061190b888289016117c2565b955050602061191c888289016117c2565b945050604086013567ffffffffffffffff81111561193957600080fd5b61194588828901611801565b935050606086013567ffffffffffffffff81111561196257600080fd5b61196e88828901611801565b925050608086013567ffffffffffffffff81111561198b57600080fd5b6119978882890161186a565b9150509295509295909350565b600080600080600060a086880312156119bc57600080fd5b60006119ca888289016117c2565b95505060206119db888289016117c2565b94505060406119ec88828901611894565b93505060606119fd88828901611894565b925050608086013567ffffffffffffffff811115611a1a57600080fd5b611a268882890161186a565b9150509295509295909350565b60008060408385031215611a4657600080fd5b6000611a54858286016117c2565b9250506020611a658582860161182b565b9150509250929050565b60008060408385031215611a8257600080fd5b6000611a90858286016117c2565b9250506020611aa185828601611894565b9150509250929050565b600080600060608486031215611ac057600080fd5b6000611ace868287016117c2565b9350506020611adf86828701611894565b9250506040611af086828701611894565b9150509250925092565b60008060408385031215611b0d57600080fd5b600083013567ffffffffffffffff811115611b2757600080fd5b611b33858286016117d7565b925050602083013567ffffffffffffffff811115611b5057600080fd5b611b5c85828601611801565b9150509250929050565b600060208284031215611b7857600080fd5b6000611b8684828501611840565b91505092915050565b600060208284031215611ba157600080fd5b6000611baf84828501611855565b91505092915050565b600060208284031215611bca57600080fd5b6000611bd884828501611894565b91505092915050565b6000611bed8383612149565b60208301905092915050565b611c02816125e3565b82525050565b6000611c138261252c565b611c1d818561255a565b9350611c288361251c565b8060005b83811015611c59578151611c408882611be1565b9750611c4b8361254d565b925050600181019050611c2c565b5085935050505092915050565b611c6f816125f5565b82525050565b6000611c8082612537565b611c8a818561256b565b9350611c9a818560208601612666565b611ca3816127a1565b840191505092915050565b6000611cb982612542565b611cc3818561257c565b9350611cd3818560208601612666565b611cdc816127a1565b840191505092915050565b6000611cf460348361257c565b91507f455243313135353a207472616e7366657220746f206e6f6e204552433131353560008301527f526563656976657220696d706c656d656e7465720000000000000000000000006020830152604082019050919050565b6000611d5a60288361257c565b91507f455243313135353a204552433131353552656365697665722072656a6563746560008301527f6420746f6b656e730000000000000000000000000000000000000000000000006020830152604082019050919050565b6000611dc0602b8361257c565b91507f455243313135353a2062616c616e636520717565727920666f7220746865207a60008301527f65726f20616464726573730000000000000000000000000000000000000000006020830152604082019050919050565b6000611e2660298361257c565b91507f455243313135353a2063616c6c6572206973206e6f74206f776e6572206e6f7260008301527f20617070726f76656400000000000000000000000000000000000000000000006020830152604082019050919050565b6000611e8c60258361257c565b91507f455243313135353a207472616e7366657220746f20746865207a65726f20616460008301527f64726573730000000000000000000000000000000000000000000000000000006020830152604082019050919050565b6000611ef260328361257c565b91507f455243313135353a207472616e736665722063616c6c6572206973206e6f742060008301527f6f776e6572206e6f7220617070726f76656400000000000000000000000000006020830152604082019050919050565b6000611f58602a8361257c565b91507f455243313135353a20696e73756666696369656e742062616c616e636520666f60008301527f72207472616e73666572000000000000000000000000000000000000000000006020830152604082019050919050565b6000611fbe60298361257c565b91507f455243313135353a2073657474696e6720617070726f76616c2073746174757360008301527f20666f722073656c6600000000000000000000000000000000000000000000006020830152604082019050919050565b600061202460298361257c565b91507f455243313135353a206163636f756e747320616e6420696473206c656e67746860008301527f206d69736d6174636800000000000000000000000000000000000000000000006020830152604082019050919050565b600061208a60288361257c565b91507f455243313135353a2069647320616e6420616d6f756e7473206c656e6774682060008301527f6d69736d617463680000000000000000000000000000000000000000000000006020830152604082019050919050565b60006120f060218361257c565b91507f455243313135353a206d696e7420746f20746865207a65726f2061646472657360008301527f73000000000000000000000000000000000000000000000000000000000000006020830152604082019050919050565b6121528161264d565b82525050565b6121618161264d565b82525050565b600060a08201905061217c6000830188611bf9565b6121896020830187611bf9565b818103604083015261219b8186611c08565b905081810360608301526121af8185611c08565b905081810360808301526121c38184611c75565b90509695505050505050565b600060a0820190506121e46000830188611bf9565b6121f16020830187611bf9565b6121fe6040830186612158565b61220b6060830185612158565b818103608083015261221d8184611c75565b90509695505050505050565b600060208201905081810360008301526122438184611c08565b905092915050565b600060408201905081810360008301526122658185611c08565b905081810360208301526122798184611c08565b90509392505050565b60006020820190506122976000830184611c66565b92915050565b600060208201905081810360008301526122b78184611cae565b905092915050565b600060208201905081810360008301526122d881611ce7565b9050919050565b600060208201905081810360008301526122f881611d4d565b9050919050565b6000602082019050818103600083015261231881611db3565b9050919050565b6000602082019050818103600083015261233881611e19565b9050919050565b6000602082019050818103600083015261235881611e7f565b9050919050565b6000602082019050818103600083015261237881611ee5565b9050919050565b6000602082019050818103600083015261239881611f4b565b9050919050565b600060208201905081810360008301526123b881611fb1565b9050919050565b600060208201905081810360008301526123d881612017565b9050919050565b600060208201905081810360008301526123f88161207d565b9050919050565b60006020820190508181036000830152612418816120e3565b9050919050565b60006020820190506124346000830184612158565b92915050565b600060408201905061244f6000830185612158565b61245c6020830184612158565b9392505050565b6000604051905081810181811067ffffffffffffffff8211171561248a57612489612772565b5b8060405250919050565b600067ffffffffffffffff8211156124af576124ae612772565b5b602082029050602081019050919050565b600067ffffffffffffffff8211156124db576124da612772565b5b602082029050602081019050919050565b600067ffffffffffffffff82111561250757612506612772565b5b601f19601f8301169050602081019050919050565b6000819050602082019050919050565b600081519050919050565b600081519050919050565b600081519050919050565b6000602082019050919050565b600082825260208201905092915050565b600082825260208201905092915050565b600082825260208201905092915050565b60006125988261264d565b91506125a38361264d565b9250827fffffffffffffffffffffffffffffffffffffffffffffffffffffffffffffffff038211156125d8576125d7612714565b5b828201905092915050565b60006125ee8261262d565b9050919050565b60008115159050919050565b60007fffffffff0000000000000000000000000000000000000000000000000000000082169050919050565b600073ffffffffffffffffffffffffffffffffffffffff82169050919050565b6000819050919050565b82818337600083830152505050565b60005b83811015612684578082015181840152602081019050612669565b83811115612693576000848401525b50505050565b600060028204905060018216806126b157607f821691505b602082108114156126c5576126c4612743565b5b50919050565b60006126d68261264d565b91507fffffffffffffffffffffffffffffffffffffffffffffffffffffffffffffffff82141561270957612708612714565b5b600182019050919050565b7f4e487b7100000000000000000000000000000000000000000000000000000000600052601160045260246000fd5b7f4e487b7100000000000000000000000000000000000000000000000000000000600052602260045260246000fd5b7f4e487b7100000000000000000000000000000000000000000000000000000000600052604160045260246000fd5b6000601f19601f8301169050919050565b60008160e01c9050919050565b600060443d10156127cf57612872565b60046000803e6127e06000516127b2565b6308c379a081146127f15750612872565b60405160043d036004823e80513d602482011167ffffffffffffffff8211171561281d57505050612872565b808201805167ffffffffffffffff81111561283c575050505050612872565b8060208301013d850181111561285757505050505050612872565b612860826127a1565b60208401016040528296505050505050505b90565b61287e816125e3565b811461288957600080fd5b50565b612895816125f5565b81146128a057600080fd5b50565b6128ac81612601565b81146128b757600080fd5b50565b6128c38161264d565b81146128ce57600080fd5b5056fea2646970667358221220be049b1b4e80d36ceaa3835d3309c6f0f0143b8cb5e61358c5e4afb886856b5364736f6c63430008000033",
  "immutableReferences": {},
  "source": "// SPDX-License-Identifier: MIT\r\npragma solidity >=0.4.22 <0.9.0;\r\nimport '@openzeppelin/contracts/token/ERC1155/extensions/ERC1155Supply.sol';\r\n//import '@openzeppelin/contracts/utils/Counters.sol';\r\n\r\n\r\ncontract Token is ERC1155Supply{\r\n\r\n    // using Counters for Counters.Counter; \r\n\r\n    constructor() ERC1155(\"\"){}\r\n\r\n    // mapping (uint256 => address) public creators;  id => creatorAddress\r\n    // Counters.Counter private _counterIds;\r\n\r\n    \r\n    // function create(uint256 _initialSupply) external returns(uint256 _id) {\r\n    //         _id = _counterIds.current() + 1;\r\n    //         creators[_id] = msg.sender;\r\n\r\n    //         _mint(msg.sender, _id, _initialSupply,\"\");\r\n\r\n    //         _counterIds.increment();\r\n    //     }\r\n\r\n    function mint(address to,uint id,uint amount) public {\r\n      _mint(to,id,amount,\"\");\r\n    }\r\n}\r\n",
  "sourcePath": "D:/BlockChain/Ethereum-201/Ethereum Game/contracts/token.sol",
  "compiler": {
    "name": "solc",
    "version": "0.8.0+commit.c7dfd78e.Emscripten.clang"
  },
  "schemaVersion": "3.4.1",
  "updatedAt": "2021-10-12T07:05:59.031Z",
  "networkType": "ethereum",
  "devdoc": {
    "kind": "dev",
    "methods": {
      "balanceOf(address,uint256)": {
        "details": "See {IERC1155-balanceOf}. Requirements: - `account` cannot be the zero address."
      },
      "balanceOfBatch(address[],uint256[])": {
        "details": "See {IERC1155-balanceOfBatch}. Requirements: - `accounts` and `ids` must have the same length."
      },
      "exists(uint256)": {
        "details": "Indicates weither any token exist with a given id, or not."
      },
      "isApprovedForAll(address,address)": {
        "details": "See {IERC1155-isApprovedForAll}."
      },
      "safeBatchTransferFrom(address,address,uint256[],uint256[],bytes)": {
        "details": "See {IERC1155-safeBatchTransferFrom}."
      },
      "safeTransferFrom(address,address,uint256,uint256,bytes)": {
        "details": "See {IERC1155-safeTransferFrom}."
      },
      "setApprovalForAll(address,bool)": {
        "details": "See {IERC1155-setApprovalForAll}."
      },
      "supportsInterface(bytes4)": {
        "details": "See {IERC165-supportsInterface}."
      },
      "totalSupply(uint256)": {
        "details": "Total amount of tokens in with a given id."
      },
      "uri(uint256)": {
        "details": "See {IERC1155MetadataURI-uri}. This implementation returns the same URI for *all* token types. It relies on the token type ID substitution mechanism https://eips.ethereum.org/EIPS/eip-1155#metadata[defined in the EIP]. Clients calling this function must replace the `\\{id\\}` substring with the actual token type ID."
      }
    },
    "version": 1
  },
  "userdoc": {
    "kind": "user",
    "methods": {},
    "version": 1
  }
}